{
  "contractName": "AttendManager",
  "abi": [
    {
      "constant": true,
      "inputs": [
        {
          "name": "addr",
          "type": "address"
        },
        {
          "name": "roleName",
          "type": "string"
        }
      ],
      "name": "checkRole",
      "outputs": [],
      "payable": false,
      "stateMutability": "view",
      "type": "function"
    },
    {
      "constant": true,
      "inputs": [],
      "name": "ROLE_WHITELISTED",
      "outputs": [
        {
          "name": "",
          "type": "string"
        }
      ],
      "payable": false,
      "stateMutability": "view",
      "type": "function"
    },
    {
      "constant": true,
      "inputs": [
        {
          "name": "addr",
          "type": "address"
        },
        {
          "name": "roleName",
          "type": "string"
        }
      ],
      "name": "hasRole",
      "outputs": [
        {
          "name": "",
          "type": "bool"
        }
      ],
      "payable": false,
      "stateMutability": "view",
      "type": "function"
    },
    {
      "constant": false,
      "inputs": [
        {
          "name": "addrs",
          "type": "address[]"
        }
      ],
      "name": "removeAddressesFromWhitelist",
      "outputs": [],
      "payable": false,
      "stateMutability": "nonpayable",
      "type": "function"
    },
    {
      "constant": false,
      "inputs": [
        {
          "name": "addr",
          "type": "address"
        }
      ],
      "name": "removeAddressFromWhitelist",
      "outputs": [],
      "payable": false,
      "stateMutability": "nonpayable",
      "type": "function"
    },
    {
      "constant": true,
      "inputs": [
        {
          "name": "",
          "type": "bytes6"
        }
      ],
      "name": "deviceRegister",
      "outputs": [
        {
          "name": "",
          "type": "bool"
        }
      ],
      "payable": false,
      "stateMutability": "view",
      "type": "function"
    },
    {
      "constant": false,
      "inputs": [],
      "name": "renounceOwnership",
      "outputs": [],
      "payable": false,
      "stateMutability": "nonpayable",
      "type": "function"
    },
    {
      "constant": false,
      "inputs": [
        {
          "name": "addr",
          "type": "address"
        }
      ],
      "name": "addAddressToWhitelist",
      "outputs": [],
      "payable": false,
      "stateMutability": "nonpayable",
      "type": "function"
    },
    {
      "constant": true,
      "inputs": [],
      "name": "owner",
      "outputs": [
        {
          "name": "",
          "type": "address"
        }
      ],
      "payable": false,
      "stateMutability": "view",
      "type": "function"
    },
    {
      "constant": true,
      "inputs": [
        {
          "name": "addr",
          "type": "address"
        }
      ],
      "name": "whitelist",
      "outputs": [
        {
          "name": "",
          "type": "bool"
        }
      ],
      "payable": false,
      "stateMutability": "view",
      "type": "function"
    },
    {
      "constant": false,
      "inputs": [
        {
          "name": "addrs",
          "type": "address[]"
        }
      ],
      "name": "addAddressesToWhitelist",
      "outputs": [],
      "payable": false,
      "stateMutability": "nonpayable",
      "type": "function"
    },
    {
      "constant": true,
      "inputs": [
        {
          "name": "",
          "type": "uint256"
        }
      ],
      "name": "logs",
      "outputs": [
        {
          "name": "timestamp",
          "type": "uint256"
        },
        {
          "name": "logType",
          "type": "uint8"
        },
        {
          "name": "deviceAddr",
          "type": "bytes6"
        }
      ],
      "payable": false,
      "stateMutability": "view",
      "type": "function"
    },
    {
      "constant": false,
      "inputs": [
        {
          "name": "_newOwner",
          "type": "address"
        }
      ],
      "name": "transferOwnership",
      "outputs": [],
      "payable": false,
      "stateMutability": "nonpayable",
      "type": "function"
    },
    {
      "anonymous": false,
      "inputs": [
        {
          "indexed": false,
          "name": "deviceAddr",
          "type": "bytes6"
        }
      ],
      "name": "DeviceRegisted",
      "type": "event"
    },
    {
      "anonymous": false,
      "inputs": [
        {
          "indexed": false,
          "name": "deviceAddr",
          "type": "bytes6"
        }
      ],
      "name": "DeviceUnregisted",
      "type": "event"
    },
    {
      "anonymous": false,
      "inputs": [
        {
          "indexed": false,
          "name": "timestamp",
          "type": "uint256"
        },
        {
          "indexed": false,
          "name": "deviceAddr",
          "type": "bytes6"
        }
      ],
      "name": "CheckedIn",
      "type": "event"
    },
    {
      "anonymous": false,
      "inputs": [
        {
          "indexed": false,
          "name": "timestamp",
          "type": "uint256"
        },
        {
          "indexed": false,
          "name": "deviceAddr",
          "type": "bytes6"
        }
      ],
      "name": "CheckedOut",
      "type": "event"
    },
    {
      "anonymous": false,
      "inputs": [
        {
          "indexed": false,
          "name": "addr",
          "type": "address"
        }
      ],
      "name": "WhitelistedAddressAdded",
      "type": "event"
    },
    {
      "anonymous": false,
      "inputs": [
        {
          "indexed": false,
          "name": "addr",
          "type": "address"
        }
      ],
      "name": "WhitelistedAddressRemoved",
      "type": "event"
    },
    {
      "anonymous": false,
      "inputs": [
        {
          "indexed": false,
          "name": "addr",
          "type": "address"
        },
        {
          "indexed": false,
          "name": "roleName",
          "type": "string"
        }
      ],
      "name": "RoleAdded",
      "type": "event"
    },
    {
      "anonymous": false,
      "inputs": [
        {
          "indexed": false,
          "name": "addr",
          "type": "address"
        },
        {
          "indexed": false,
          "name": "roleName",
          "type": "string"
        }
      ],
      "name": "RoleRemoved",
      "type": "event"
    },
    {
      "anonymous": false,
      "inputs": [
        {
          "indexed": true,
          "name": "previousOwner",
          "type": "address"
        }
      ],
      "name": "OwnershipRenounced",
      "type": "event"
    },
    {
      "anonymous": false,
      "inputs": [
        {
          "indexed": true,
          "name": "previousOwner",
          "type": "address"
        },
        {
          "indexed": true,
          "name": "newOwner",
          "type": "address"
        }
      ],
      "name": "OwnershipTransferred",
      "type": "event"
    },
    {
      "constant": false,
      "inputs": [
        {
          "name": "deviceAddr",
          "type": "bytes6"
        }
      ],
      "name": "registDevice",
      "outputs": [],
      "payable": false,
      "stateMutability": "nonpayable",
      "type": "function"
    },
    {
      "constant": false,
      "inputs": [
        {
          "name": "deviceAddr",
          "type": "bytes6"
        }
      ],
      "name": "unregistDevice",
      "outputs": [],
      "payable": false,
      "stateMutability": "nonpayable",
      "type": "function"
    },
    {
      "constant": true,
      "inputs": [
        {
          "name": "deviceAddr",
          "type": "bytes6"
        }
      ],
      "name": "isDeviceRegistered",
      "outputs": [
        {
          "name": "",
          "type": "bool"
        }
      ],
      "payable": false,
      "stateMutability": "view",
      "type": "function"
    },
    {
      "constant": false,
      "inputs": [
        {
          "name": "timestamp",
          "type": "uint256"
        },
        {
          "name": "deviceAddr",
          "type": "bytes6"
        }
      ],
      "name": "checkIn",
      "outputs": [],
      "payable": false,
      "stateMutability": "nonpayable",
      "type": "function"
    },
    {
      "constant": false,
      "inputs": [
        {
          "name": "timestamp",
          "type": "uint256"
        },
        {
          "name": "deviceAddr",
          "type": "bytes6"
        }
      ],
      "name": "checkOut",
      "outputs": [],
      "payable": false,
      "stateMutability": "nonpayable",
      "type": "function"
    }
  ],
  "bytecode": "0x6080604052336000806101000a81548173ffffffffffffffffffffffffffffffffffffffff021916908373ffffffffffffffffffffffffffffffffffffffff160217905550611a2d806100536000396000f3006080604052600436106100fc576000357c0100000000000000000000000000000000000000000000000000000000900463ffffffff1680630988ca8c1461010157806318b919e91461012a578063217fe6c61461015557806324953eaa14610192578063286dd3f5146101bb5780632b00528f146101e457806349a59dca14610221578063715018a61461024a578063762a9ccf146102615780637b9417c81461028a578063872c7e8b146102b35780638da5cb5b146102dc5780639b19251a14610307578063cf367aad14610344578063e1a337921461036d578063e2ec6ec3146103aa578063e79899bd146103d3578063f2fde38b14610412575b600080fd5b34801561010d57600080fd5b506101286004803603610123919081019061154c565b61043b565b005b34801561013657600080fd5b5061013f6104bc565b60405161014c91906117a7565b60405180910390f35b34801561016157600080fd5b5061017c6004803603610177919081019061154c565b6104f5565b6040516101899190611771565b60405180910390f35b34801561019e57600080fd5b506101b960048036036101b491908101906115a0565b61057c565b005b3480156101c757600080fd5b506101e260048036036101dd9190810190611523565b610618565b005b3480156101f057600080fd5b5061020b600480360361020691908101906115e1565b6106ec565b6040516102189190611771565b60405180910390f35b34801561022d57600080fd5b5061024860048036036102439190810190611633565b61070c565b005b34801561025657600080fd5b5061025f610885565b005b34801561026d57600080fd5b50610288600480360361028391908101906115e1565b610987565b005b34801561029657600080fd5b506102b160048036036102ac9190810190611523565b610ae8565b005b3480156102bf57600080fd5b506102da60048036036102d591908101906115e1565b610bbc565b005b3480156102e857600080fd5b506102f1610cb7565b6040516102fe9190611726565b60405180910390f35b34801561031357600080fd5b5061032e60048036036103299190810190611523565b610cdc565b60405161033b9190611771565b60405180910390f35b34801561035057600080fd5b5061036b60048036036103669190810190611633565b610d24565b005b34801561037957600080fd5b50610394600480360361038f91908101906115e1565b610e9c565b6040516103a19190611771565b60405180910390f35b3480156103b657600080fd5b506103d160048036036103cc91908101906115a0565b610f00565b005b3480156103df57600080fd5b506103fa60048036036103f5919081019061160a565b610f9c565b604051610409939291906117f2565b60405180910390f35b34801561041e57600080fd5b5061043960048036036104349190810190611523565b611009565b005b6104b8826001836040518082805190602001908083835b6020831015156104775780518252602082019150602081019050602083039250610452565b6001836020036101000a038019825116818451168082178552505050505050905001915050908152602001604051809103902061107090919063ffffffff16565b5050565b6040805190810160405280600981526020017f77686974656c697374000000000000000000000000000000000000000000000081525081565b6000610574836001846040518082805190602001908083835b602083101515610533578051825260208201915060208101905060208303925061050e565b6001836020036101000a038019825116818451168082178552505050505050905001915050908152602001604051809103902061108990919063ffffffff16565b905092915050565b60008060009054906101000a900473ffffffffffffffffffffffffffffffffffffffff1673ffffffffffffffffffffffffffffffffffffffff163373ffffffffffffffffffffffffffffffffffffffff161415156105d957600080fd5b600090505b81518110156106145761060782828151811015156105f857fe5b90602001906020020151610618565b80806001019150506105de565b5050565b6000809054906101000a900473ffffffffffffffffffffffffffffffffffffffff1673ffffffffffffffffffffffffffffffffffffffff163373ffffffffffffffffffffffffffffffffffffffff1614151561067357600080fd5b6106b2816040805190810160405280600981526020017f77686974656c69737400000000000000000000000000000000000000000000008152506110e2565b7ff1abf01a1043b7c244d128e8595cf0c1d10743b022b03a02dffd8ca3bf729f5a816040516106e19190611726565b60405180910390a150565b60036020528060005260406000206000915054906101000a900460ff1681565b61074b336040805190810160405280600981526020017f77686974656c697374000000000000000000000000000000000000000000000081525061043b565b61075481610e9c565b151561075f57600080fd5b60026060604051908101604052808481526020016000600181111561078057fe5b81526020018379ffffffffffffffffffffffffffffffffffffffffffffffffffff1916815250908060018154018082558091505090600182039060005260206000209060020201600090919290919091506000820151816000015560208201518160010160006101000a81548160ff021916908360018111156107ff57fe5b021790555060408201518160010160016101000a81548165ffffffffffff02191690837a010000000000000000000000000000000000000000000000000000900402179055505050507f48ab6a554c6d3d716c2c9642845bc5164d0486b5ed417f196df2d006982f392d82826040516108799291906117c9565b60405180910390a15050565b6000809054906101000a900473ffffffffffffffffffffffffffffffffffffffff1673ffffffffffffffffffffffffffffffffffffffff163373ffffffffffffffffffffffffffffffffffffffff161415156108e057600080fd5b6000809054906101000a900473ffffffffffffffffffffffffffffffffffffffff1673ffffffffffffffffffffffffffffffffffffffff167ff8df31144d9c2f0f6b59d69b8b98abd5459d07f2742c4df920b25aae33c6482060405160405180910390a260008060006101000a81548173ffffffffffffffffffffffffffffffffffffffff021916908373ffffffffffffffffffffffffffffffffffffffff160217905550565b6000809054906101000a900473ffffffffffffffffffffffffffffffffffffffff1673ffffffffffffffffffffffffffffffffffffffff163373ffffffffffffffffffffffffffffffffffffffff161415156109e257600080fd5b600360008279ffffffffffffffffffffffffffffffffffffffffffffffffffff191679ffffffffffffffffffffffffffffffffffffffffffffffffffff1916815260200190815260200160002060009054906101000a900460ff161515610a4857600080fd5b6000600360008379ffffffffffffffffffffffffffffffffffffffffffffffffffff191679ffffffffffffffffffffffffffffffffffffffffffffffffffff1916815260200190815260200160002060006101000a81548160ff0219169083151502179055507f063031cf9e2e53622238e62b80e93a9a6068dc731a2659bd878b350041dedd5581604051610add919061178c565b60405180910390a150565b6000809054906101000a900473ffffffffffffffffffffffffffffffffffffffff1673ffffffffffffffffffffffffffffffffffffffff163373ffffffffffffffffffffffffffffffffffffffff16141515610b4357600080fd5b610b82816040805190810160405280600981526020017f77686974656c697374000000000000000000000000000000000000000000000081525061119c565b7fd1bba68c128cc3f427e5831b3c6f99f480b6efa6b9e80c757768f6124158cc3f81604051610bb19190611726565b60405180910390a150565b6000809054906101000a900473ffffffffffffffffffffffffffffffffffffffff1673ffffffffffffffffffffffffffffffffffffffff163373ffffffffffffffffffffffffffffffffffffffff16141515610c1757600080fd5b6001600360008379ffffffffffffffffffffffffffffffffffffffffffffffffffff191679ffffffffffffffffffffffffffffffffffffffffffffffffffff1916815260200190815260200160002060006101000a81548160ff0219169083151502179055507f2220097a2d10d1d8dc3b7b72836b07839acb7e1253330f4250263186ee53b36381604051610cac919061178c565b60405180910390a150565b6000809054906101000a900473ffffffffffffffffffffffffffffffffffffffff1681565b6000610d1d826040805190810160405280600981526020017f77686974656c69737400000000000000000000000000000000000000000000008152506104f5565b9050919050565b610d63336040805190810160405280600981526020017f77686974656c697374000000000000000000000000000000000000000000000081525061043b565b610d6c81610e9c565b1515610d7757600080fd5b6002606060405190810160405280848152602001600180811115610d9757fe5b81526020018379ffffffffffffffffffffffffffffffffffffffffffffffffffff1916815250908060018154018082558091505090600182039060005260206000209060020201600090919290919091506000820151816000015560208201518160010160006101000a81548160ff02191690836001811115610e1657fe5b021790555060408201518160010160016101000a81548165ffffffffffff02191690837a010000000000000000000000000000000000000000000000000000900402179055505050507f93479ba0e8c35f2f9807f20c798a2ffff59093aa5702eb6b916914fc226acb338282604051610e909291906117c9565b60405180910390a15050565b6000600360008379ffffffffffffffffffffffffffffffffffffffffffffffffffff191679ffffffffffffffffffffffffffffffffffffffffffffffffffff1916815260200190815260200160002060009054906101000a900460ff169050919050565b60008060009054906101000a900473ffffffffffffffffffffffffffffffffffffffff1673ffffffffffffffffffffffffffffffffffffffff163373ffffffffffffffffffffffffffffffffffffffff16141515610f5d57600080fd5b600090505b8151811015610f9857610f8b8282815181101515610f7c57fe5b90602001906020020151610ae8565b8080600101915050610f62565b5050565b600281815481101515610fab57fe5b90600052602060002090600202016000915090508060000154908060010160009054906101000a900460ff16908060010160019054906101000a90047a01000000000000000000000000000000000000000000000000000002905083565b6000809054906101000a900473ffffffffffffffffffffffffffffffffffffffff1673ffffffffffffffffffffffffffffffffffffffff163373ffffffffffffffffffffffffffffffffffffffff1614151561106457600080fd5b61106d81611256565b50565b61107a8282611089565b151561108557600080fd5b5050565b60008260000160008373ffffffffffffffffffffffffffffffffffffffff1673ffffffffffffffffffffffffffffffffffffffff16815260200190815260200160002060009054906101000a900460ff16905092915050565b61115f826001836040518082805190602001908083835b60208310151561111e57805182526020820191506020810190506020830392506110f9565b6001836020036101000a038019825116818451168082178552505050505050905001915050908152602001604051809103902061135090919063ffffffff16565b7fd211483f91fc6eff862467f8de606587a30c8fc9981056f051b897a418df803a8282604051611190929190611741565b60405180910390a15050565b611219826001836040518082805190602001908083835b6020831015156111d857805182526020820191506020810190506020830392506111b3565b6001836020036101000a03801982511681845116808217855250505050505090500191505090815260200160405180910390206113ae90919063ffffffff16565b7fbfec83d64eaa953f2708271a023ab9ee82057f8f3578d548c1a4ba0b5b700489828260405161124a929190611741565b60405180910390a15050565b600073ffffffffffffffffffffffffffffffffffffffff168173ffffffffffffffffffffffffffffffffffffffff161415151561129257600080fd5b8073ffffffffffffffffffffffffffffffffffffffff166000809054906101000a900473ffffffffffffffffffffffffffffffffffffffff1673ffffffffffffffffffffffffffffffffffffffff167f8be0079c531659141344cd1fd0a4f28419497f9722a3daafe3b4186f6b6457e060405160405180910390a3806000806101000a81548173ffffffffffffffffffffffffffffffffffffffff021916908373ffffffffffffffffffffffffffffffffffffffff16021790555050565b60008260000160008373ffffffffffffffffffffffffffffffffffffffff1673ffffffffffffffffffffffffffffffffffffffff16815260200190815260200160002060006101000a81548160ff0219169083151502179055505050565b60018260000160008373ffffffffffffffffffffffffffffffffffffffff1673ffffffffffffffffffffffffffffffffffffffff16815260200190815260200160002060006101000a81548160ff0219169083151502179055505050565b60006114188235611938565b905092915050565b600082601f830112151561143357600080fd5b813561144661144182611856565b611829565b9150818183526020840193506020810190508385602084028201111561146b57600080fd5b60005b8381101561149b5781611481888261140c565b84526020840193506020830192505060018101905061146e565b5050505092915050565b60006114b18235611958565b905092915050565b600082601f83011215156114cc57600080fd5b81356114df6114da8261187e565b611829565b915080825260208301602083018583830111156114fb57600080fd5b6115068382846119a0565b50505092915050565b600061151b8235611984565b905092915050565b60006020828403121561153557600080fd5b60006115438482850161140c565b91505092915050565b6000806040838503121561155f57600080fd5b600061156d8582860161140c565b925050602083013567ffffffffffffffff81111561158a57600080fd5b611596858286016114b9565b9150509250929050565b6000602082840312156115b257600080fd5b600082013567ffffffffffffffff8111156115cc57600080fd5b6115d884828501611420565b91505092915050565b6000602082840312156115f357600080fd5b6000611601848285016114a5565b91505092915050565b60006020828403121561161c57600080fd5b600061162a8482850161150f565b91505092915050565b6000806040838503121561164657600080fd5b60006116548582860161150f565b9250506020611665858286016114a5565b9150509250929050565b611678816118c0565b82525050565b611687816118e0565b82525050565b611696816118ec565b82525050565b6116a58161198e565b82525050565b60006116b6826118b5565b8084526116ca8160208601602086016119af565b6116d3816119e2565b602085010191505092915050565b60006116ec826118aa565b8084526117008160208601602086016119af565b611709816119e2565b602085010191505092915050565b6117208161192e565b82525050565b600060208201905061173b600083018461166f565b92915050565b6000604082019050611756600083018561166f565b818103602083015261176881846116ab565b90509392505050565b6000602082019050611786600083018461167e565b92915050565b60006020820190506117a1600083018461168d565b92915050565b600060208201905081810360008301526117c181846116e1565b905092915050565b60006040820190506117de6000830185611717565b6117eb602083018461168d565b9392505050565b60006060820190506118076000830186611717565b611814602083018561169c565b611821604083018461168d565b949350505050565b6000604051905081810181811067ffffffffffffffff8211171561184c57600080fd5b8060405250919050565b600067ffffffffffffffff82111561186d57600080fd5b602082029050602081019050919050565b600067ffffffffffffffff82111561189557600080fd5b601f19601f8301169050602081019050919050565b600081519050919050565b600081519050919050565b600073ffffffffffffffffffffffffffffffffffffffff82169050919050565b60008115159050919050565b60007fffffffffffff000000000000000000000000000000000000000000000000000082169050919050565b600060028210151561192657fe5b819050919050565b6000819050919050565b600073ffffffffffffffffffffffffffffffffffffffff82169050919050565b60007fffffffffffff000000000000000000000000000000000000000000000000000082169050919050565b6000819050919050565b600061199982611918565b9050919050565b82818337600083830152505050565b60005b838110156119cd5780820151818401526020810190506119b2565b838111156119dc576000848401525b50505050565b6000601f19601f83011690509190505600a265627a7a72305820ded807be9617242d3d4f62ead42ffe0a1951b1cc6c79a4b5c01cb108a8287f436c6578706572696d656e74616cf50037",
  "source": "pragma solidity ^0.4.21;\npragma experimental ABIEncoderV2;\n\nimport \"../node_modules/openzeppelin-solidity/contracts/ownership/Ownable.sol\";\nimport \"../node_modules/openzeppelin-solidity/contracts/ownership/Whitelist.sol\";\n// import \"openzeppelin-solidity/contracts/ownership/Ownable.sol\";\n// import \"openzeppelin-solidity/contracts/ownership/Whitelist.sol\";\n\ncontract AttendManager is Ownable, Whitelist {\n    event DeviceRegisted(bytes6 deviceAddr);\n    event DeviceUnregisted(bytes6 deviceAddr);\n    event CheckedIn(uint timestamp, bytes6 deviceAddr);\n    event CheckedOut(uint timestamp, bytes6 deviceAddr);\n\n    enum LogType {\n        CheckOut,\n        CheckIn\n    }\n\n    struct Log {\n        uint timestamp;\n        LogType logType;\n        bytes6 deviceAddr;\n    }\n\n    Log[] public logs;\n    mapping(bytes6=>bool) public deviceRegister;\n\n    function registDevice(bytes6 deviceAddr) public onlyOwner {\n        deviceRegister[deviceAddr] = true;\n        emit DeviceRegisted(deviceAddr);\n    }\n\n    function unregistDevice(bytes6 deviceAddr) public onlyOwner {\n        require(deviceRegister[deviceAddr]);\n        deviceRegister[deviceAddr] = false;\n        emit DeviceUnregisted(deviceAddr);\n    }\n\n    function isDeviceRegistered(bytes6 deviceAddr) public view returns(bool) {\n        return deviceRegister[deviceAddr];\n    }\n\n    function checkIn(uint timestamp, bytes6 deviceAddr) public onlyWhitelisted {\n        require(isDeviceRegistered(deviceAddr));\n        logs.push(Log(timestamp, LogType.CheckIn, deviceAddr));\n        emit CheckedIn(timestamp, deviceAddr);\n    }\n\n    function checkOut(uint timestamp, bytes6 deviceAddr) public onlyWhitelisted {\n        require(isDeviceRegistered(deviceAddr));\n        logs.push(Log(timestamp, LogType.CheckOut, deviceAddr));\n        emit CheckedOut(timestamp, deviceAddr);\n    }\n}\n",
  "sourcePath": "/home/hrntknr/work/attend-manager/contract/contracts/AttendManager.sol",
  "compiler": {
    "name": "solc",
    "version": "0.4.24+commit.e67f0147.Emscripten.clang"
  },
  "schemaVersion": "2.0.1",
  "updatedAt": "2018-07-08T13:40:09.754Z"
}