{
  "contractName": "AttendManager",
  "abi": [
    {
      "constant": true,
      "inputs": [
        {
          "name": "addr",
          "type": "address"
        },
        {
          "name": "roleName",
          "type": "string"
        }
      ],
      "name": "checkRole",
      "outputs": [],
      "payable": false,
      "stateMutability": "view",
      "type": "function"
    },
    {
      "constant": true,
      "inputs": [],
      "name": "ROLE_WHITELISTED",
      "outputs": [
        {
          "name": "",
          "type": "string"
        }
      ],
      "payable": false,
      "stateMutability": "view",
      "type": "function"
    },
    {
      "constant": true,
      "inputs": [
        {
          "name": "addr",
          "type": "address"
        },
        {
          "name": "roleName",
          "type": "string"
        }
      ],
      "name": "hasRole",
      "outputs": [
        {
          "name": "",
          "type": "bool"
        }
      ],
      "payable": false,
      "stateMutability": "view",
      "type": "function"
    },
    {
      "constant": false,
      "inputs": [
        {
          "name": "addrs",
          "type": "address[]"
        }
      ],
      "name": "removeAddressesFromWhitelist",
      "outputs": [],
      "payable": false,
      "stateMutability": "nonpayable",
      "type": "function"
    },
    {
      "constant": false,
      "inputs": [
        {
          "name": "addr",
          "type": "address"
        }
      ],
      "name": "removeAddressFromWhitelist",
      "outputs": [],
      "payable": false,
      "stateMutability": "nonpayable",
      "type": "function"
    },
    {
      "constant": false,
      "inputs": [],
      "name": "renounceOwnership",
      "outputs": [],
      "payable": false,
      "stateMutability": "nonpayable",
      "type": "function"
    },
    {
      "constant": false,
      "inputs": [
        {
          "name": "addr",
          "type": "address"
        }
      ],
      "name": "addAddressToWhitelist",
      "outputs": [],
      "payable": false,
      "stateMutability": "nonpayable",
      "type": "function"
    },
    {
      "constant": true,
      "inputs": [],
      "name": "owner",
      "outputs": [
        {
          "name": "",
          "type": "address"
        }
      ],
      "payable": false,
      "stateMutability": "view",
      "type": "function"
    },
    {
      "constant": true,
      "inputs": [
        {
          "name": "addr",
          "type": "address"
        }
      ],
      "name": "whitelist",
      "outputs": [
        {
          "name": "",
          "type": "bool"
        }
      ],
      "payable": false,
      "stateMutability": "view",
      "type": "function"
    },
    {
      "constant": false,
      "inputs": [
        {
          "name": "addrs",
          "type": "address[]"
        }
      ],
      "name": "addAddressesToWhitelist",
      "outputs": [],
      "payable": false,
      "stateMutability": "nonpayable",
      "type": "function"
    },
    {
      "constant": false,
      "inputs": [
        {
          "name": "_newOwner",
          "type": "address"
        }
      ],
      "name": "transferOwnership",
      "outputs": [],
      "payable": false,
      "stateMutability": "nonpayable",
      "type": "function"
    },
    {
      "anonymous": false,
      "inputs": [
        {
          "indexed": false,
          "name": "timestamp",
          "type": "uint256"
        },
        {
          "indexed": false,
          "name": "deviceAddr",
          "type": "bytes6"
        }
      ],
      "name": "CheckedIn",
      "type": "event"
    },
    {
      "anonymous": false,
      "inputs": [
        {
          "indexed": false,
          "name": "timestamp",
          "type": "uint256"
        },
        {
          "indexed": false,
          "name": "deviceAddr",
          "type": "bytes6"
        }
      ],
      "name": "CheckedOut",
      "type": "event"
    },
    {
      "anonymous": false,
      "inputs": [
        {
          "indexed": false,
          "name": "addr",
          "type": "address"
        }
      ],
      "name": "WhitelistedAddressAdded",
      "type": "event"
    },
    {
      "anonymous": false,
      "inputs": [
        {
          "indexed": false,
          "name": "addr",
          "type": "address"
        }
      ],
      "name": "WhitelistedAddressRemoved",
      "type": "event"
    },
    {
      "anonymous": false,
      "inputs": [
        {
          "indexed": false,
          "name": "addr",
          "type": "address"
        },
        {
          "indexed": false,
          "name": "roleName",
          "type": "string"
        }
      ],
      "name": "RoleAdded",
      "type": "event"
    },
    {
      "anonymous": false,
      "inputs": [
        {
          "indexed": false,
          "name": "addr",
          "type": "address"
        },
        {
          "indexed": false,
          "name": "roleName",
          "type": "string"
        }
      ],
      "name": "RoleRemoved",
      "type": "event"
    },
    {
      "anonymous": false,
      "inputs": [
        {
          "indexed": true,
          "name": "previousOwner",
          "type": "address"
        }
      ],
      "name": "OwnershipRenounced",
      "type": "event"
    },
    {
      "anonymous": false,
      "inputs": [
        {
          "indexed": true,
          "name": "previousOwner",
          "type": "address"
        },
        {
          "indexed": true,
          "name": "newOwner",
          "type": "address"
        }
      ],
      "name": "OwnershipTransferred",
      "type": "event"
    },
    {
      "constant": false,
      "inputs": [
        {
          "name": "deviceAddr",
          "type": "bytes6"
        }
      ],
      "name": "registDevice",
      "outputs": [],
      "payable": false,
      "stateMutability": "nonpayable",
      "type": "function"
    },
    {
      "constant": false,
      "inputs": [
        {
          "name": "deviceAddr",
          "type": "bytes6"
        }
      ],
      "name": "unregistDevice",
      "outputs": [],
      "payable": false,
      "stateMutability": "nonpayable",
      "type": "function"
    },
    {
      "constant": true,
      "inputs": [
        {
          "name": "deviceAddr",
          "type": "bytes6"
        }
      ],
      "name": "isDeviceRegistered",
      "outputs": [
        {
          "name": "",
          "type": "bool"
        }
      ],
      "payable": false,
      "stateMutability": "view",
      "type": "function"
    },
    {
      "constant": false,
      "inputs": [
        {
          "name": "timestamp",
          "type": "uint256"
        },
        {
          "name": "deviceAddr",
          "type": "bytes6"
        }
      ],
      "name": "checkIn",
      "outputs": [],
      "payable": false,
      "stateMutability": "nonpayable",
      "type": "function"
    },
    {
      "constant": false,
      "inputs": [
        {
          "name": "timestamp",
          "type": "uint256"
        },
        {
          "name": "deviceAddr",
          "type": "bytes6"
        }
      ],
      "name": "checkOut",
      "outputs": [],
      "payable": false,
      "stateMutability": "nonpayable",
      "type": "function"
    }
  ],
  "bytecode": "0x6080604052336000806101000a81548173ffffffffffffffffffffffffffffffffffffffff021916908373ffffffffffffffffffffffffffffffffffffffff160217905550611781806100536000396000f3006080604052600436106100e6576000357c0100000000000000000000000000000000000000000000000000000000900463ffffffff1680630988ca8c146100eb57806318b919e914610174578063217fe6c61461020457806324953eaa146102a5578063286dd3f51461030b57806349a59dca1461034e578063715018a6146103a2578063762a9ccf146103b95780637b9417c814610403578063872c7e8b146104465780638da5cb5b146104905780639b19251a146104e7578063cf367aad14610542578063e1a3379214610596578063e2ec6ec3146105f8578063f2fde38b1461065e575b600080fd5b3480156100f757600080fd5b50610172600480360381019080803573ffffffffffffffffffffffffffffffffffffffff169060200190929190803590602001908201803590602001908080601f01602080910402602001604051908101604052809392919081815260200183838082843782019150505050505091929192905050506106a1565b005b34801561018057600080fd5b50610189610722565b6040518080602001828103825283818151815260200191508051906020019080838360005b838110156101c95780820151818401526020810190506101ae565b50505050905090810190601f1680156101f65780820380516001836020036101000a031916815260200191505b509250505060405180910390f35b34801561021057600080fd5b5061028b600480360381019080803573ffffffffffffffffffffffffffffffffffffffff169060200190929190803590602001908201803590602001908080601f016020809104026020016040519081016040528093929190818152602001838380828437820191505050505050919291929050505061075b565b604051808215151515815260200191505060405180910390f35b3480156102b157600080fd5b50610309600480360381019080803590602001908201803590602001908080602002602001604051908101604052809392919081815260200183836020028082843782019150505050505091929192905050506107e2565b005b34801561031757600080fd5b5061034c600480360381019080803573ffffffffffffffffffffffffffffffffffffffff16906020019092919050505061087e565b005b34801561035a57600080fd5b506103a060048036038101908080359060200190929190803579ffffffffffffffffffffffffffffffffffffffffffffffffffff1916906020019092919050505061097e565b005b3480156103ae57600080fd5b506103b7610b23565b005b3480156103c557600080fd5b50610401600480360381019080803579ffffffffffffffffffffffffffffffffffffffffffffffffffff19169060200190929190505050610c25565b005b34801561040f57600080fd5b50610444600480360381019080803573ffffffffffffffffffffffffffffffffffffffff169060200190929190505050610d4f565b005b34801561045257600080fd5b5061048e600480360381019080803579ffffffffffffffffffffffffffffffffffffffffffffffffffff19169060200190929190505050610e4f565b005b34801561049c57600080fd5b506104a5610f13565b604051808273ffffffffffffffffffffffffffffffffffffffff1673ffffffffffffffffffffffffffffffffffffffff16815260200191505060405180910390f35b3480156104f357600080fd5b50610528600480360381019080803573ffffffffffffffffffffffffffffffffffffffff169060200190929190505050610f38565b604051808215151515815260200191505060405180910390f35b34801561054e57600080fd5b5061059460048036038101908080359060200190929190803579ffffffffffffffffffffffffffffffffffffffffffffffffffff19169060200190929190505050610f80565b005b3480156105a257600080fd5b506105de600480360381019080803579ffffffffffffffffffffffffffffffffffffffffffffffffffff19169060200190929190505050611124565b604051808215151515815260200191505060405180910390f35b34801561060457600080fd5b5061065c60048036038101908080359060200190820180359060200190808060200260200160405190810160405280939291908181526020018383602002808284378201915050505050509192919290505050611188565b005b34801561066a57600080fd5b5061069f600480360381019080803573ffffffffffffffffffffffffffffffffffffffff169060200190929190505050611224565b005b61071e826001836040518082805190602001908083835b6020831015156106dd57805182526020820191506020810190506020830392506106b8565b6001836020036101000a038019825116818451168082178552505050505050905001915050908152602001604051809103902061128b90919063ffffffff16565b5050565b6040805190810160405280600981526020017f77686974656c697374000000000000000000000000000000000000000000000081525081565b60006107da836001846040518082805190602001908083835b6020831015156107995780518252602082019150602081019050602083039250610774565b6001836020036101000a03801982511681845116808217855250505050505090500191505090815260200160405180910390206112a490919063ffffffff16565b905092915050565b60008060009054906101000a900473ffffffffffffffffffffffffffffffffffffffff1673ffffffffffffffffffffffffffffffffffffffff163373ffffffffffffffffffffffffffffffffffffffff1614151561083f57600080fd5b600090505b815181101561087a5761086d828281518110151561085e57fe5b9060200190602002015161087e565b8080600101915050610844565b5050565b6000809054906101000a900473ffffffffffffffffffffffffffffffffffffffff1673ffffffffffffffffffffffffffffffffffffffff163373ffffffffffffffffffffffffffffffffffffffff161415156108d957600080fd5b610918816040805190810160405280600981526020017f77686974656c69737400000000000000000000000000000000000000000000008152506112fd565b7ff1abf01a1043b7c244d128e8595cf0c1d10743b022b03a02dffd8ca3bf729f5a81604051808273ffffffffffffffffffffffffffffffffffffffff1673ffffffffffffffffffffffffffffffffffffffff16815260200191505060405180910390a150565b6109bd336040805190810160405280600981526020017f77686974656c69737400000000000000000000000000000000000000000000008152506106a1565b6002606060405190810160405280848152602001600060018111156109de57fe5b81526020018379ffffffffffffffffffffffffffffffffffffffffffffffffffff1916815250908060018154018082558091505090600182039060005260206000209060020201600090919290919091506000820151816000015560208201518160010160006101000a81548160ff02191690836001811115610a5d57fe5b021790555060408201518160010160016101000a81548165ffffffffffff02191690837a010000000000000000000000000000000000000000000000000000900402179055505050507f48ab6a554c6d3d716c2c9642845bc5164d0486b5ed417f196df2d006982f392d8282604051808381526020018279ffffffffffffffffffffffffffffffffffffffffffffffffffff191679ffffffffffffffffffffffffffffffffffffffffffffffffffff191681526020019250505060405180910390a15050565b6000809054906101000a900473ffffffffffffffffffffffffffffffffffffffff1673ffffffffffffffffffffffffffffffffffffffff163373ffffffffffffffffffffffffffffffffffffffff16141515610b7e57600080fd5b6000809054906101000a900473ffffffffffffffffffffffffffffffffffffffff1673ffffffffffffffffffffffffffffffffffffffff167ff8df31144d9c2f0f6b59d69b8b98abd5459d07f2742c4df920b25aae33c6482060405160405180910390a260008060006101000a81548173ffffffffffffffffffffffffffffffffffffffff021916908373ffffffffffffffffffffffffffffffffffffffff160217905550565b6000809054906101000a900473ffffffffffffffffffffffffffffffffffffffff1673ffffffffffffffffffffffffffffffffffffffff163373ffffffffffffffffffffffffffffffffffffffff16141515610c8057600080fd5b600360008279ffffffffffffffffffffffffffffffffffffffffffffffffffff191679ffffffffffffffffffffffffffffffffffffffffffffffffffff1916815260200190815260200160002060009054906101000a900460ff161515610ce657600080fd5b6000600360008379ffffffffffffffffffffffffffffffffffffffffffffffffffff191679ffffffffffffffffffffffffffffffffffffffffffffffffffff1916815260200190815260200160002060006101000a81548160ff02191690831515021790555050565b6000809054906101000a900473ffffffffffffffffffffffffffffffffffffffff1673ffffffffffffffffffffffffffffffffffffffff163373ffffffffffffffffffffffffffffffffffffffff16141515610daa57600080fd5b610de9816040805190810160405280600981526020017f77686974656c697374000000000000000000000000000000000000000000000081525061144e565b7fd1bba68c128cc3f427e5831b3c6f99f480b6efa6b9e80c757768f6124158cc3f81604051808273ffffffffffffffffffffffffffffffffffffffff1673ffffffffffffffffffffffffffffffffffffffff16815260200191505060405180910390a150565b6000809054906101000a900473ffffffffffffffffffffffffffffffffffffffff1673ffffffffffffffffffffffffffffffffffffffff163373ffffffffffffffffffffffffffffffffffffffff16141515610eaa57600080fd5b6001600360008379ffffffffffffffffffffffffffffffffffffffffffffffffffff191679ffffffffffffffffffffffffffffffffffffffffffffffffffff1916815260200190815260200160002060006101000a81548160ff02191690831515021790555050565b6000809054906101000a900473ffffffffffffffffffffffffffffffffffffffff1681565b6000610f79826040805190810160405280600981526020017f77686974656c697374000000000000000000000000000000000000000000000081525061075b565b9050919050565b610fbf336040805190810160405280600981526020017f77686974656c69737400000000000000000000000000000000000000000000008152506106a1565b6002606060405190810160405280848152602001600180811115610fdf57fe5b81526020018379ffffffffffffffffffffffffffffffffffffffffffffffffffff1916815250908060018154018082558091505090600182039060005260206000209060020201600090919290919091506000820151816000015560208201518160010160006101000a81548160ff0219169083600181111561105e57fe5b021790555060408201518160010160016101000a81548165ffffffffffff02191690837a010000000000000000000000000000000000000000000000000000900402179055505050507f93479ba0e8c35f2f9807f20c798a2ffff59093aa5702eb6b916914fc226acb338282604051808381526020018279ffffffffffffffffffffffffffffffffffffffffffffffffffff191679ffffffffffffffffffffffffffffffffffffffffffffffffffff191681526020019250505060405180910390a15050565b6000600360008379ffffffffffffffffffffffffffffffffffffffffffffffffffff191679ffffffffffffffffffffffffffffffffffffffffffffffffffff1916815260200190815260200160002060009054906101000a900460ff169050919050565b60008060009054906101000a900473ffffffffffffffffffffffffffffffffffffffff1673ffffffffffffffffffffffffffffffffffffffff163373ffffffffffffffffffffffffffffffffffffffff161415156111e557600080fd5b600090505b815181101561122057611213828281518110151561120457fe5b90602001906020020151610d4f565b80806001019150506111ea565b5050565b6000809054906101000a900473ffffffffffffffffffffffffffffffffffffffff1673ffffffffffffffffffffffffffffffffffffffff163373ffffffffffffffffffffffffffffffffffffffff1614151561127f57600080fd5b6112888161159f565b50565b61129582826112a4565b15156112a057600080fd5b5050565b60008260000160008373ffffffffffffffffffffffffffffffffffffffff1673ffffffffffffffffffffffffffffffffffffffff16815260200190815260200160002060009054906101000a900460ff16905092915050565b61137a826001836040518082805190602001908083835b6020831015156113395780518252602082019150602081019050602083039250611314565b6001836020036101000a038019825116818451168082178552505050505050905001915050908152602001604051809103902061169990919063ffffffff16565b7fd211483f91fc6eff862467f8de606587a30c8fc9981056f051b897a418df803a8282604051808373ffffffffffffffffffffffffffffffffffffffff1673ffffffffffffffffffffffffffffffffffffffff16815260200180602001828103825283818151815260200191508051906020019080838360005b8381101561140f5780820151818401526020810190506113f4565b50505050905090810190601f16801561143c5780820380516001836020036101000a031916815260200191505b50935050505060405180910390a15050565b6114cb826001836040518082805190602001908083835b60208310151561148a5780518252602082019150602081019050602083039250611465565b6001836020036101000a03801982511681845116808217855250505050505090500191505090815260200160405180910390206116f790919063ffffffff16565b7fbfec83d64eaa953f2708271a023ab9ee82057f8f3578d548c1a4ba0b5b7004898282604051808373ffffffffffffffffffffffffffffffffffffffff1673ffffffffffffffffffffffffffffffffffffffff16815260200180602001828103825283818151815260200191508051906020019080838360005b83811015611560578082015181840152602081019050611545565b50505050905090810190601f16801561158d5780820380516001836020036101000a031916815260200191505b50935050505060405180910390a15050565b600073ffffffffffffffffffffffffffffffffffffffff168173ffffffffffffffffffffffffffffffffffffffff16141515156115db57600080fd5b8073ffffffffffffffffffffffffffffffffffffffff166000809054906101000a900473ffffffffffffffffffffffffffffffffffffffff1673ffffffffffffffffffffffffffffffffffffffff167f8be0079c531659141344cd1fd0a4f28419497f9722a3daafe3b4186f6b6457e060405160405180910390a3806000806101000a81548173ffffffffffffffffffffffffffffffffffffffff021916908373ffffffffffffffffffffffffffffffffffffffff16021790555050565b60008260000160008373ffffffffffffffffffffffffffffffffffffffff1673ffffffffffffffffffffffffffffffffffffffff16815260200190815260200160002060006101000a81548160ff0219169083151502179055505050565b60018260000160008373ffffffffffffffffffffffffffffffffffffffff1673ffffffffffffffffffffffffffffffffffffffff16815260200190815260200160002060006101000a81548160ff02191690831515021790555050505600a165627a7a723058200ff505db9205c69fb79396b0186ae822f2357d60eaf6eed1b014456f7a9134b70029",
  "source": "pragma solidity ^0.4.21;\n\nimport \"../node_modules/openzeppelin-solidity/contracts/ownership/Ownable.sol\";\nimport \"../node_modules/openzeppelin-solidity/contracts/ownership/Whitelist.sol\";\n// import \"openzeppelin-solidity/contracts/ownership/Ownable.sol\";\n// import \"openzeppelin-solidity/contracts/ownership/Whitelist.sol\";\n\ncontract AttendManager is Ownable, Whitelist {\n    event CheckedIn(uint timestamp, bytes6 deviceAddr);\n    event CheckedOut(uint timestamp, bytes6 deviceAddr);\n\n    enum LogType {\n        CheckOut,\n        CheckIn\n    }\n\n    struct Log {\n        uint timestamp;\n        LogType logType;\n        bytes6 deviceAddr;\n    }\n\n    Log[] logs;\n    mapping(bytes6=>bool) deviceRegister;\n\n    function registDevice(bytes6 deviceAddr) public onlyOwner {\n        deviceRegister[deviceAddr] = true;\n    }\n\n    function unregistDevice(bytes6 deviceAddr) public onlyOwner {\n        require(deviceRegister[deviceAddr]);\n        deviceRegister[deviceAddr] = false;\n    }\n\n    function isDeviceRegistered(bytes6 deviceAddr) public view returns(bool) {\n        return deviceRegister[deviceAddr];\n    }\n\n    function checkIn(uint timestamp, bytes6 deviceAddr) public onlyWhitelisted {\n        logs.push(Log(timestamp, LogType.CheckIn, deviceAddr));\n        emit CheckedIn(timestamp, deviceAddr);\n    }\n\n    function checkOut(uint timestamp, bytes6 deviceAddr) public onlyWhitelisted {\n        logs.push(Log(timestamp, LogType.CheckOut, deviceAddr));\n        emit CheckedOut(timestamp, deviceAddr);\n    }\n}\n",
  "sourcePath": "/home/hrntknr/work/attend-manager/contract/contracts/AttendManager.sol",
  "compiler": {
    "name": "solc",
    "version": "0.4.24+commit.e67f0147.Emscripten.clang"
  },
  "schemaVersion": "2.0.1",
  "updatedAt": "2018-07-05T15:21:21.368Z"
}